{
  "contractName": "Splitter",
  "abi": [
    {
      "constant": false,
      "inputs": [
        {
          "name": "_firstRecipient",
          "type": "address"
        },
        {
          "name": "_secondRecipient",
          "type": "address"
        }
      ],
      "name": "split",
      "outputs": [
        {
          "name": "success",
          "type": "bool"
        }
      ],
      "payable": true,
      "stateMutability": "payable",
      "type": "function"
    },
    {
      "constant": true,
      "inputs": [
        {
          "name": "",
          "type": "address"
        }
      ],
      "name": "balances",
      "outputs": [
        {
          "name": "",
          "type": "uint256"
        }
      ],
      "payable": false,
      "stateMutability": "view",
      "type": "function"
    },
    {
      "constant": false,
      "inputs": [],
      "name": "withdraw",
      "outputs": [
        {
          "name": "success",
          "type": "bool"
        }
      ],
      "payable": false,
      "stateMutability": "nonpayable",
      "type": "function"
    },
    {
      "constant": false,
      "inputs": [],
      "name": "closeContract",
      "outputs": [],
      "payable": false,
      "stateMutability": "nonpayable",
      "type": "function"
    },
    {
      "inputs": [],
      "payable": false,
      "stateMutability": "nonpayable",
      "type": "constructor"
    },
    {
      "anonymous": false,
      "inputs": [
        {
          "indexed": false,
          "name": "destroyer",
          "type": "address"
        }
      ],
      "name": "ContractDestroyed",
      "type": "event"
    },
    {
      "anonymous": false,
      "inputs": [
        {
          "indexed": true,
          "name": "sender",
          "type": "address"
        },
        {
          "indexed": true,
          "name": "firstRecipient",
          "type": "address"
        },
        {
          "indexed": true,
          "name": "secondRecipient",
          "type": "address"
        },
        {
          "indexed": false,
          "name": "amount",
          "type": "uint256"
        }
      ],
      "name": "LogSplit",
      "type": "event"
    },
    {
      "anonymous": false,
      "inputs": [
        {
          "indexed": true,
          "name": "recipient",
          "type": "address"
        },
        {
          "indexed": false,
          "name": "amount",
          "type": "uint256"
        }
      ],
      "name": "LogWithdrawal",
      "type": "event"
    }
  ],
  "bytecode": "0x6060604052341561000f57600080fd5b336000806101000a81548173ffffffffffffffffffffffffffffffffffffffff021916908373ffffffffffffffffffffffffffffffffffffffff1602179055506105b38061005e6000396000f300606060405260043610610062576000357c0100000000000000000000000000000000000000000000000000000000900463ffffffff1680630f2c93291461006757806327e235e3146100cc5780633ccfd60b14610119578063610be65414610146575b600080fd5b6100b2600480803573ffffffffffffffffffffffffffffffffffffffff1690602001909190803573ffffffffffffffffffffffffffffffffffffffff1690602001909190505061015b565b604051808215151515815260200191505060405180910390f35b34156100d757600080fd5b610103600480803573ffffffffffffffffffffffffffffffffffffffff16906020019091905050610369565b6040518082815260200191505060405180910390f35b341561012457600080fd5b61012c610381565b604051808215151515815260200191505060405180910390f35b341561015157600080fd5b6101596104b0565b005b6000808373ffffffffffffffffffffffffffffffffffffffff163373ffffffffffffffffffffffffffffffffffffffff16141580156101c657508273ffffffffffffffffffffffffffffffffffffffff163373ffffffffffffffffffffffffffffffffffffffff1614155b15156101d157600080fd5b6000341115156101e057600080fd5b6002348115156101ec57fe5b04905080600160008673ffffffffffffffffffffffffffffffffffffffff1673ffffffffffffffffffffffffffffffffffffffff1681526020019081526020016000206000828254019250508190555080600160008573ffffffffffffffffffffffffffffffffffffffff1673ffffffffffffffffffffffffffffffffffffffff1681526020019081526020016000206000828254019250508190555060023481151561029557fe5b06600160003373ffffffffffffffffffffffffffffffffffffffff1673ffffffffffffffffffffffffffffffffffffffff168152602001908152602001600020600082825401925050819055508273ffffffffffffffffffffffffffffffffffffffff168473ffffffffffffffffffffffffffffffffffffffff163373ffffffffffffffffffffffffffffffffffffffff167f5861cc23de8cab7630160dc0ee2c1e9aa2a0f1498f73c387807c0100e6684da7846040518082815260200191505060405180910390a4600191505092915050565b60016020528060005260406000206000915090505481565b600080600160003373ffffffffffffffffffffffffffffffffffffffff1673ffffffffffffffffffffffffffffffffffffffff1681526020019081526020016000205490506000811115156103d557600080fd5b6000600160003373ffffffffffffffffffffffffffffffffffffffff1673ffffffffffffffffffffffffffffffffffffffff168152602001908152602001600020819055503373ffffffffffffffffffffffffffffffffffffffff167fb4214c8c54fc7442f36d3682f59aebaf09358a4431835b30efb29d52cf9e1e91826040518082815260200191505060405180910390a23373ffffffffffffffffffffffffffffffffffffffff166108fc829081150290604051600060405180830381858888f1935050505015156104a857600080fd5b600191505090565b6000809054906101000a900473ffffffffffffffffffffffffffffffffffffffff1673ffffffffffffffffffffffffffffffffffffffff163373ffffffffffffffffffffffffffffffffffffffff1614151561050b57600080fd5b7f3ab1d7915d663a46c292b8f01ac13567c748cff5213cb3652695882b5f9b2e0f33604051808273ffffffffffffffffffffffffffffffffffffffff1673ffffffffffffffffffffffffffffffffffffffff16815260200191505060405180910390a13373ffffffffffffffffffffffffffffffffffffffff16ff00a165627a7a72305820c9c2eeb5ca1b784391ed8b7ab7cda5210ef9b946fe78350c3a86a1cf434f082c0029",
  "source": "pragma solidity ^0.4.17;\n\ncontract Splitter {\n    address owner;\n    mapping (address => uint) public balances;\n\n    event ContractDestroyed(address destroyer);\n    event LogSplit(address indexed sender, address indexed firstRecipient, address indexed secondRecipient, uint256 amount);\n    event LogWithdrawal(address indexed recipient, uint256 amount);\n\n    modifier onlyowner() {\n        require(msg.sender == owner);\n        _;\n    }\n\n    function Splitter() public {\n        owner = msg.sender;\n    }\n\n    function split(address _firstRecipient, address _secondRecipient) public payable returns (bool success) {\n        require(msg.sender != _firstRecipient && msg.sender != _secondRecipient);\n        require(msg.value > 0);\n\n        uint splitAmount = msg.value / 2;\n        balances[_firstRecipient] += splitAmount;\n        balances[_secondRecipient] += splitAmount; \n        balances[msg.sender] += msg.value % 2;       \n\n        LogSplit(msg.sender, _firstRecipient, _secondRecipient, splitAmount);\n        return true;\n    }\n\n\n    function withdraw() public returns (bool success) {\n        uint amount = balances[msg.sender];\n        require(amount>0);\n        balances[msg.sender] = 0;\n        LogWithdrawal(msg.sender,amount);\n        msg.sender.transfer(amount);\n        return true;\n    }\n\n    function closeContract() public onlyowner {\n        ContractDestroyed(msg.sender);\n        selfdestruct(msg.sender);\n    }\n\n}",
  "sourcePath": "/Users/ivanov.vladdy/DAPPS/splitter/contracts/Splitter.sol",
  "compiler": {
    "name": "solc",
    "version": "0.4.18+commit.9cf6e910.Emscripten.clang"
  },
  "schemaVersion": "1.0.1",
  "updatedAt": "2018-01-28T12:45:21.470Z"
}